{
  "_format": "hh-sol-artifact-1",
  "contractName": "EventManagerDOMEv1",
  "sourceName": "contracts/EventManagerDOMEv1.sol",
  "abi": [
    {
      "anonymous": false,
      "inputs": [
        {
          "indexed": false,
          "internalType": "uint256",
          "name": "index",
          "type": "uint256"
        },
        {
          "indexed": false,
          "internalType": "uint256",
          "name": "timestamp",
          "type": "uint256"
        },
        {
          "indexed": true,
          "internalType": "bytes32",
          "name": "origin",
          "type": "bytes32"
        },
        {
          "indexed": true,
          "internalType": "bytes32",
          "name": "entityIDHash",
          "type": "bytes32"
        },
        {
          "indexed": true,
          "internalType": "bytes32",
          "name": "previousEntityHash",
          "type": "bytes32"
        },
        {
          "indexed": false,
          "internalType": "string",
          "name": "eventType",
          "type": "string"
        },
        {
          "indexed": false,
          "internalType": "string",
          "name": "dataLocation",
          "type": "string"
        },
        {
          "indexed": false,
          "internalType": "string[]",
          "name": "metadata",
          "type": "string[]"
        }
      ],
      "name": "EventDOMEv1",
      "type": "event"
    },
    {
      "anonymous": false,
      "inputs": [
        {
          "indexed": true,
          "internalType": "address",
          "name": "previousOwner",
          "type": "address"
        },
        {
          "indexed": true,
          "internalType": "address",
          "name": "newOwner",
          "type": "address"
        }
      ],
      "name": "OwnershipTransferred",
      "type": "event"
    },
    {
      "inputs": [
        {
          "internalType": "bytes32",
          "name": "_origin",
          "type": "bytes32"
        },
        {
          "internalType": "bytes32",
          "name": "_entityIDHash",
          "type": "bytes32"
        },
        {
          "internalType": "bytes32",
          "name": "_previousEntityHash",
          "type": "bytes32"
        },
        {
          "internalType": "string",
          "name": "_eventType",
          "type": "string"
        },
        {
          "internalType": "string",
          "name": "_dataLocation",
          "type": "string"
        },
        {
          "internalType": "string[]",
          "name": "_metadata",
          "type": "string[]"
        }
      ],
      "name": "emitNewEvent",
      "outputs": [
        {
          "internalType": "bool",
          "name": "",
          "type": "bool"
        }
      ],
      "stateMutability": "nonpayable",
      "type": "function"
    },
    {
      "inputs": [],
      "name": "index",
      "outputs": [
        {
          "internalType": "uint256",
          "name": "",
          "type": "uint256"
        }
      ],
      "stateMutability": "view",
      "type": "function"
    },
    {
      "inputs": [],
      "name": "owner",
      "outputs": [
        {
          "internalType": "address",
          "name": "",
          "type": "address"
        }
      ],
      "stateMutability": "view",
      "type": "function"
    },
    {
      "inputs": [],
      "name": "renounceOwnership",
      "outputs": [],
      "stateMutability": "nonpayable",
      "type": "function"
    },
    {
      "inputs": [
        {
          "internalType": "address",
          "name": "newOwner",
          "type": "address"
        }
      ],
      "name": "transferOwnership",
      "outputs": [],
      "stateMutability": "nonpayable",
      "type": "function"
    }
  ],
  "bytecode": "0x608060405234801561001057600080fd5b50610033610025640100000000610038810204565b64010000000061003c810204565b61008c565b3390565b60008054600160a060020a03838116600160a060020a0319831681178455604051919092169283917f8be0079c531659141344cd1fd0a4f28419497f9722a3daafe3b4186f6b6457e09190a35050565b6106858061009b6000396000f3fe608060405234801561001057600080fd5b5060043610610073577c010000000000000000000000000000000000000000000000000000000060003504632986c0e58114610078578063715018a6146100945780638da5cb5b1461009e578063ea968463146100b9578063f2fde38b146100dc575b600080fd5b61008160015481565b6040519081526020015b60405180910390f35b61009c6100ef565b005b600054604051600160a060020a03909116815260200161008b565b6100cc6100c73660046103aa565b610131565b604051901515815260200161008b565b61009c6100ea3660046104d1565b6101c5565b600054600160a060020a031633146101255760405160e560020a62461bcd02815260040161011c90610501565b60405180910390fd5b61012f600061027d565b565b60008054600160a060020a0316331461015f5760405160e560020a62461bcd02815260040161011c90610501565b8486887f1cd51b9a0e7a5215ccff58a059f28158d89e915273764818e05f7438a0f00acb6001544289898960405161019b95949392919061057c565b60405180910390a4600180549060006101b38361060f565b90915550600198975050505050505050565b600054600160a060020a031633146101f25760405160e560020a62461bcd02815260040161011c90610501565b600160a060020a0381166102715760405160e560020a62461bcd02815260206004820152602660248201527f4f776e61626c653a206e6577206f776e657220697320746865207a65726f206160448201527f6464726573730000000000000000000000000000000000000000000000000000606482015260840161011c565b61027a8161027d565b50565b60008054600160a060020a0383811673ffffffffffffffffffffffffffffffffffffffff19831681178455604051919092169283917f8be0079c531659141344cd1fd0a4f28419497f9722a3daafe3b4186f6b6457e09190a35050565b7f4e487b7100000000000000000000000000000000000000000000000000000000600052604160045260246000fd5b604051601f8201601f1916810167ffffffffffffffff81118282101715610332576103326102da565b604052919050565b600082601f83011261034b57600080fd5b813567ffffffffffffffff811115610365576103656102da565b610378601f8201601f1916602001610309565b81815284602083860101111561038d57600080fd5b816020850160208301376000918101602001919091529392505050565b60008060008060008060c087890312156103c357600080fd5b86359550602080880135955060408801359450606088013567ffffffffffffffff808211156103f157600080fd5b6103fd8b838c0161033a565b955060808a013591508082111561041357600080fd5b61041f8b838c0161033a565b945060a08a013591508082111561043557600080fd5b818a0191508a601f83011261044957600080fd5b81358181111561045b5761045b6102da565b838102610469858201610309565b918252838101850191858101908e84111561048357600080fd5b86860192505b838310156104bd57848335111561049f57600080fd5b6104ae8f88853589010161033a565b82529186019190860190610489565b809750505050505050509295509295509295565b6000602082840312156104e357600080fd5b8135600160a060020a03811681146104fa57600080fd5b9392505050565b6020808252818101527f4f776e61626c653a2063616c6c6572206973206e6f7420746865206f776e6572604082015260600190565b6000815180845260005b8181101561055c57602081850181015186830182015201610540565b506000602082860101526020601f19601f83011685010191505092915050565b85815260006020868184015260a0604084015261059c60a0840187610536565b83810360608501526105ae8187610536565b84810360808601528551808252909150828201908381028301840184880160005b838110156105fd57601f198684030185526105eb838351610536565b948701949250908601906001016105cf565b50909c9b505050505050505050505050565b600060018201610648577f4e487b7100000000000000000000000000000000000000000000000000000000600052601160045260246000fd5b506001019056fea2646970667358221220d5bc89b15ff3dd2a7c07c36f4340c9161a55151e724dd120bc766af78dd22e4164736f6c63430008150033",
  "linkReferences": {},
  "deployedLinkReferences": {}
}