{
  "_format": "hh-sol-artifact-1",
  "contractName": "EventManagerDOMEv1",
  "sourceName": "contracts/EventManagerDOMEv1.sol",
  "abi": [
    {
      "anonymous": false,
      "inputs": [
        {
          "indexed": false,
          "internalType": "uint256",
          "name": "index",
          "type": "uint256"
        },
        {
          "indexed": false,
          "internalType": "uint256",
          "name": "timestamp",
          "type": "uint256"
        },
        {
          "indexed": true,
          "internalType": "bytes32",
          "name": "origin",
          "type": "bytes32"
        },
        {
          "indexed": true,
          "internalType": "bytes32",
          "name": "entityIDHash",
          "type": "bytes32"
        },
        {
          "indexed": false,
          "internalType": "string",
          "name": "eventType",
          "type": "string"
        },
        {
          "indexed": false,
          "internalType": "string",
          "name": "dataLocation",
          "type": "string"
        },
        {
          "indexed": false,
          "internalType": "string[]",
          "name": "metadata",
          "type": "string[]"
        },
        {
          "indexed": true,
          "internalType": "bool",
          "name": "active",
          "type": "bool"
        }
      ],
      "name": "EventDOMEv1",
      "type": "event"
    },
    {
      "anonymous": false,
      "inputs": [
        {
          "indexed": true,
          "internalType": "address",
          "name": "previousOwner",
          "type": "address"
        },
        {
          "indexed": true,
          "internalType": "address",
          "name": "newOwner",
          "type": "address"
        }
      ],
      "name": "OwnershipTransferred",
      "type": "event"
    },
    {
      "inputs": [
        {
          "internalType": "bytes32",
          "name": "_origin",
          "type": "bytes32"
        },
        {
          "internalType": "bytes32",
          "name": "_entityIDHash",
          "type": "bytes32"
        },
        {
          "internalType": "string",
          "name": "_eventType",
          "type": "string"
        },
        {
          "internalType": "string",
          "name": "_dataLocation",
          "type": "string"
        },
        {
          "internalType": "string[]",
          "name": "_metadata",
          "type": "string[]"
        }
      ],
      "name": "emitNewEvent",
      "outputs": [
        {
          "internalType": "bool",
          "name": "",
          "type": "bool"
        }
      ],
      "stateMutability": "nonpayable",
      "type": "function"
    },
    {
      "inputs": [],
      "name": "index",
      "outputs": [
        {
          "internalType": "uint256",
          "name": "",
          "type": "uint256"
        }
      ],
      "stateMutability": "view",
      "type": "function"
    },
    {
      "inputs": [],
      "name": "owner",
      "outputs": [
        {
          "internalType": "address",
          "name": "",
          "type": "address"
        }
      ],
      "stateMutability": "view",
      "type": "function"
    },
    {
      "inputs": [],
      "name": "renounceOwnership",
      "outputs": [],
      "stateMutability": "nonpayable",
      "type": "function"
    },
    {
      "inputs": [
        {
          "internalType": "address",
          "name": "newOwner",
          "type": "address"
        }
      ],
      "name": "transferOwnership",
      "outputs": [],
      "stateMutability": "nonpayable",
      "type": "function"
    }
  ],
  "bytecode": "0x608060405234801561001057600080fd5b50610033610025640100000000610038810204565b64010000000061003c810204565b61008c565b3390565b60008054600160a060020a03838116600160a060020a0319831681178455604051919092169283917f8be0079c531659141344cd1fd0a4f28419497f9722a3daafe3b4186f6b6457e09190a35050565b6106818061009b6000396000f3fe608060405234801561001057600080fd5b5060043610610073577c010000000000000000000000000000000000000000000000000000000060003504632986c0e58114610078578063715018a6146100945780638da5cb5b1461009e578063a70d4cc9146100b9578063f2fde38b146100dc575b600080fd5b61008160015481565b6040519081526020015b60405180910390f35b61009c6100ef565b005b600054604051600160a060020a03909116815260200161008b565b6100cc6100c73660046103ac565b610131565b604051901515815260200161008b565b61009c6100ea3660046104cd565b6101c7565b600054600160a060020a031633146101255760405160e560020a62461bcd02815260040161011c906104fd565b60405180910390fd5b61012f600061027f565b565b60008054600160a060020a0316331461015f5760405160e560020a62461bcd02815260040161011c906104fd565b6001151585877f744b8815dfa5bb1a63ac3dd1e6999e8eb1ca19b5506c8abe827442872d1d53ea6001544289898960405161019e959493929190610578565b60405180910390a4600180549060006101b68361060b565b909155506001979650505050505050565b600054600160a060020a031633146101f45760405160e560020a62461bcd02815260040161011c906104fd565b600160a060020a0381166102735760405160e560020a62461bcd02815260206004820152602660248201527f4f776e61626c653a206e6577206f776e657220697320746865207a65726f206160448201527f6464726573730000000000000000000000000000000000000000000000000000606482015260840161011c565b61027c8161027f565b50565b60008054600160a060020a0383811673ffffffffffffffffffffffffffffffffffffffff19831681178455604051919092169283917f8be0079c531659141344cd1fd0a4f28419497f9722a3daafe3b4186f6b6457e09190a35050565b7f4e487b7100000000000000000000000000000000000000000000000000000000600052604160045260246000fd5b604051601f8201601f1916810167ffffffffffffffff81118282101715610334576103346102dc565b604052919050565b600082601f83011261034d57600080fd5b813567ffffffffffffffff811115610367576103676102dc565b61037a601f8201601f191660200161030b565b81815284602083860101111561038f57600080fd5b816020850160208301376000918101602001919091529392505050565b600080600080600060a086880312156103c457600080fd5b853594506020808701359450604087013567ffffffffffffffff808211156103eb57600080fd5b6103f78a838b0161033c565b9550606089013591508082111561040d57600080fd5b6104198a838b0161033c565b9450608089013591508082111561042f57600080fd5b818901915089601f83011261044357600080fd5b813581811115610455576104556102dc565b83810261046385820161030b565b918252838101850191858101908d84111561047d57600080fd5b86860192505b838310156104b95782358581111561049b5760008081fd5b6104a98f89838a010161033c565b8352509186019190860190610483565b809750505050505050509295509295909350565b6000602082840312156104df57600080fd5b8135600160a060020a03811681146104f657600080fd5b9392505050565b6020808252818101527f4f776e61626c653a2063616c6c6572206973206e6f7420746865206f776e6572604082015260600190565b6000815180845260005b818110156105585760208185018101518683018201520161053c565b506000602082860101526020601f19601f83011685010191505092915050565b85815260006020868184015260a0604084015261059860a0840187610532565b83810360608501526105aa8187610532565b84810360808601528551808252909150828201908381028301840184880160005b838110156105f957601f198684030185526105e7838351610532565b948701949250908601906001016105cb565b50909c9b505050505050505050505050565b600060018201610644577f4e487b7100000000000000000000000000000000000000000000000000000000600052601160045260246000fd5b506001019056fea264697066735822122065a985d0ab41328a44c04924188d1828394e2949058b89f5b752c75cfa7f2b9864736f6c63430008150033",
  "linkReferences": {},
  "deployedLinkReferences": {}
}