{
  "_format": "hh-sol-artifact-1",
  "contractName": "EventManagerDOMEv1",
  "sourceName": "contracts/EventManagerDOMEv1.sol",
  "abi": [
    {
      "anonymous": false,
      "inputs": [
        {
          "indexed": false,
          "internalType": "uint256",
          "name": "index",
          "type": "uint256"
        },
        {
          "indexed": false,
          "internalType": "uint256",
          "name": "timestamp",
          "type": "uint256"
        },
        {
          "indexed": true,
          "internalType": "bytes32",
          "name": "publisherAddress",
          "type": "bytes32"
        },
        {
          "indexed": false,
          "internalType": "address",
          "name": "authorAddress",
          "type": "address"
        },
        {
          "indexed": true,
          "internalType": "bytes32",
          "name": "entityIDHash",
          "type": "bytes32"
        },
        {
          "indexed": true,
          "internalType": "bytes32",
          "name": "previousEntityHash",
          "type": "bytes32"
        },
        {
          "indexed": false,
          "internalType": "string",
          "name": "eventType",
          "type": "string"
        },
        {
          "indexed": false,
          "internalType": "string",
          "name": "dataLocation",
          "type": "string"
        },
        {
          "indexed": false,
          "internalType": "string[]",
          "name": "metadata",
          "type": "string[]"
        }
      ],
      "name": "EventDOMEv1",
      "type": "event"
    },
    {
      "anonymous": false,
      "inputs": [
        {
          "indexed": true,
          "internalType": "address",
          "name": "previousOwner",
          "type": "address"
        },
        {
          "indexed": true,
          "internalType": "address",
          "name": "newOwner",
          "type": "address"
        }
      ],
      "name": "OwnershipTransferred",
      "type": "event"
    },
    {
      "inputs": [
        {
          "internalType": "bytes32",
          "name": "_publisherAddress",
          "type": "bytes32"
        },
        {
          "internalType": "address",
          "name": "_authorAdress",
          "type": "address"
        },
        {
          "internalType": "bytes32",
          "name": "_entityIDHash",
          "type": "bytes32"
        },
        {
          "internalType": "bytes32",
          "name": "_previousEntityHash",
          "type": "bytes32"
        },
        {
          "internalType": "string",
          "name": "_eventType",
          "type": "string"
        },
        {
          "internalType": "string",
          "name": "_dataLocation",
          "type": "string"
        },
        {
          "internalType": "string[]",
          "name": "_metadata",
          "type": "string[]"
        }
      ],
      "name": "emitNewEvent",
      "outputs": [
        {
          "internalType": "bool",
          "name": "",
          "type": "bool"
        }
      ],
      "stateMutability": "nonpayable",
      "type": "function"
    },
    {
      "inputs": [],
      "name": "index",
      "outputs": [
        {
          "internalType": "uint256",
          "name": "",
          "type": "uint256"
        }
      ],
      "stateMutability": "view",
      "type": "function"
    },
    {
      "inputs": [],
      "name": "owner",
      "outputs": [
        {
          "internalType": "address",
          "name": "",
          "type": "address"
        }
      ],
      "stateMutability": "view",
      "type": "function"
    },
    {
      "inputs": [],
      "name": "renounceOwnership",
      "outputs": [],
      "stateMutability": "nonpayable",
      "type": "function"
    },
    {
      "inputs": [
        {
          "internalType": "address",
          "name": "newOwner",
          "type": "address"
        }
      ],
      "name": "transferOwnership",
      "outputs": [],
      "stateMutability": "nonpayable",
      "type": "function"
    }
  ],
  "bytecode": "0x608060405234801561001057600080fd5b50610033610025640100000000610038810204565b64010000000061003c810204565b61008c565b3390565b60008054600160a060020a03838116600160a060020a0319831681178455604051919092169283917f8be0079c531659141344cd1fd0a4f28419497f9722a3daafe3b4186f6b6457e09190a35050565b6106f88061009b6000396000f3fe608060405234801561001057600080fd5b5060043610610073577c010000000000000000000000000000000000000000000000000000000060003504632986c0e58114610078578063715018a6146100945780638da5cb5b1461009e578063a8fe6791146100b9578063f2fde38b146100dc575b600080fd5b61008160015481565b6040519081526020015b60405180910390f35b61009c6100ef565b005b600054604051600160a060020a03909116815260200161008b565b6100cc6100c736600461043e565b610174565b604051901515815260200161008b565b61009c6100ea366004610577565b6101df565b600054600160a060020a03163314610168576040517f08c379a000000000000000000000000000000000000000000000000000000000815260206004820181905260248201527f4f776e61626c653a2063616c6c6572206973206e6f7420746865206f776e657260448201526064015b60405180910390fd5b61017260006102f5565b565b60008486897feca82b2306091d979257b71b361bf0e91f0067a9597bdafb0fd324e007733f23600154428c8a8a8a6040516101b4969594939291906105df565b60405180910390a4600180549060006101cc83610682565b9091555060019998505050505050505050565b600054600160a060020a03163314610253576040517f08c379a000000000000000000000000000000000000000000000000000000000815260206004820181905260248201527f4f776e61626c653a2063616c6c6572206973206e6f7420746865206f776e6572604482015260640161015f565b600160a060020a0381166102e9576040517f08c379a000000000000000000000000000000000000000000000000000000000815260206004820152602660248201527f4f776e61626c653a206e6577206f776e657220697320746865207a65726f206160448201527f6464726573730000000000000000000000000000000000000000000000000000606482015260840161015f565b6102f2816102f5565b50565b60008054600160a060020a0383811673ffffffffffffffffffffffffffffffffffffffff19831681178455604051919092169283917f8be0079c531659141344cd1fd0a4f28419497f9722a3daafe3b4186f6b6457e09190a35050565b8035600160a060020a038116811461036957600080fd5b919050565b7f4e487b7100000000000000000000000000000000000000000000000000000000600052604160045260246000fd5b604051601f8201601f1916810167ffffffffffffffff811182821017156103c6576103c661036e565b604052919050565b600082601f8301126103df57600080fd5b813567ffffffffffffffff8111156103f9576103f961036e565b61040c601f8201601f191660200161039d565b81815284602083860101111561042157600080fd5b816020850160208301376000918101602001919091529392505050565b600080600080600080600060e0888a03121561045957600080fd5b8735965061046960208901610352565b95506040880135945060608801359350608088013567ffffffffffffffff8082111561049457600080fd5b6104a08b838c016103ce565b945060a08a01359150808211156104b657600080fd5b6104c28b838c016103ce565b935060c08a01359150808211156104d857600080fd5b818a0191508a601f8301126104ec57600080fd5b8135818111156104fe576104fe61036e565b61050c60208083020161039d565b818152602091820284018201918101908d83111561052957600080fd5b602085015b8381101561056257848135111561054457600080fd5b6105548f602083358901016103ce565b83526020928301920161052e565b50809550505050505092959891949750929550565b60006020828403121561058957600080fd5b61059282610352565b9392505050565b6000815180845260005b818110156105bf576020818501810151868301820152016105a3565b506000602082860101526020601f19601f83011685010191505092915050565b868152600060208781840152600160a060020a038716604084015260c0606084015261060e60c0840187610599565b83810360808501526106208187610599565b84810360a08601528551808252909150828201908381028301840184880160005b8381101561066f57601f1986840301855261065d838351610599565b94870194925090860190600101610641565b50909d9c50505050505050505050505050565b6000600182016106bb577f4e487b7100000000000000000000000000000000000000000000000000000000600052601160045260246000fd5b506001019056fea2646970667358221220eba60e0a62571d2d4cd0b9604076bf087a6f08081c69f9420c6bcf32e6d9c28064736f6c63430008150033",
  "linkReferences": {},
  "deployedLinkReferences": {}
}